{
  "_format": "hh-sol-artifact-1",
  "contractName": "VotingSystem",
  "sourceName": "contracts/VotingSystem.sol",
  "abi": [
    {
      "inputs": [
        {
          "internalType": "address",
          "name": "tokenAddress",
          "type": "address"
        }
      ],
      "stateMutability": "nonpayable",
      "type": "constructor"
    },
    {
      "anonymous": false,
      "inputs": [
        {
          "indexed": false,
          "internalType": "uint256",
          "name": "proposalId",
          "type": "uint256"
        },
        {
          "indexed": false,
          "internalType": "string",
          "name": "description",
          "type": "string"
        }
      ],
      "name": "ProposalCreated",
      "type": "event"
    },
    {
      "anonymous": false,
      "inputs": [
        {
          "indexed": true,
          "internalType": "address",
          "name": "voter",
          "type": "address"
        },
        {
          "indexed": false,
          "internalType": "uint256",
          "name": "proposalId",
          "type": "uint256"
        },
        {
          "indexed": false,
          "internalType": "uint256",
          "name": "amount",
          "type": "uint256"
        }
      ],
      "name": "Voted",
      "type": "event"
    },
    {
      "inputs": [
        {
          "internalType": "string",
          "name": "_description",
          "type": "string"
        }
      ],
      "name": "createProposal",
      "outputs": [],
      "stateMutability": "nonpayable",
      "type": "function"
    },
    {
      "inputs": [],
      "name": "getProposals",
      "outputs": [
        {
          "components": [
            {
              "internalType": "string",
              "name": "description",
              "type": "string"
            },
            {
              "internalType": "uint256",
              "name": "voteCount",
              "type": "uint256"
            }
          ],
          "internalType": "struct VotingSystem.Proposal[]",
          "name": "",
          "type": "tuple[]"
        }
      ],
      "stateMutability": "view",
      "type": "function"
    },
    {
      "inputs": [
        {
          "internalType": "address",
          "name": "",
          "type": "address"
        },
        {
          "internalType": "uint256",
          "name": "",
          "type": "uint256"
        }
      ],
      "name": "hasVoted",
      "outputs": [
        {
          "internalType": "bool",
          "name": "",
          "type": "bool"
        }
      ],
      "stateMutability": "view",
      "type": "function"
    },
    {
      "inputs": [],
      "name": "owner",
      "outputs": [
        {
          "internalType": "address",
          "name": "",
          "type": "address"
        }
      ],
      "stateMutability": "view",
      "type": "function"
    },
    {
      "inputs": [
        {
          "internalType": "uint256",
          "name": "",
          "type": "uint256"
        }
      ],
      "name": "proposals",
      "outputs": [
        {
          "internalType": "string",
          "name": "description",
          "type": "string"
        },
        {
          "internalType": "uint256",
          "name": "voteCount",
          "type": "uint256"
        }
      ],
      "stateMutability": "view",
      "type": "function"
    },
    {
      "inputs": [
        {
          "internalType": "uint256",
          "name": "proposalId",
          "type": "uint256"
        },
        {
          "internalType": "uint256",
          "name": "amount",
          "type": "uint256"
        }
      ],
      "name": "vote",
      "outputs": [],
      "stateMutability": "nonpayable",
      "type": "function"
    },
    {
      "inputs": [],
      "name": "voteToken",
      "outputs": [
        {
          "internalType": "contract IERC20",
          "name": "",
          "type": "address"
        }
      ],
      "stateMutability": "view",
      "type": "function"
    }
  ],
  "bytecode": "0x608060405234801561001057600080fd5b5060405161165b38038061165b8339818101604052810190610032919061011c565b806000806101000a81548173ffffffffffffffffffffffffffffffffffffffff021916908373ffffffffffffffffffffffffffffffffffffffff16021790555033600160006101000a81548173ffffffffffffffffffffffffffffffffffffffff021916908373ffffffffffffffffffffffffffffffffffffffff16021790555050610149565b600080fd5b600073ffffffffffffffffffffffffffffffffffffffff82169050919050565b60006100e9826100be565b9050919050565b6100f9816100de565b811461010457600080fd5b50565b600081519050610116816100f0565b92915050565b600060208284031215610132576101316100b9565b5b600061014084828501610107565b91505092915050565b611503806101586000396000f3fe608060405234801561001057600080fd5b506004361061007d5760003560e01c806349c2a1a61161005b57806349c2a1a61461010157806362564c481461011d5780638da5cb5b1461013b578063b384abef146101595761007d565b8063013cf08b14610082578063160d66ae146100b357806342545825146100d1575b600080fd5b61009c600480360381019061009791906108ac565b610175565b6040516100aa929190610978565b60405180910390f35b6100bb610231565b6040516100c89190610a27565b60405180910390f35b6100eb60048036038101906100e69190610a80565b610255565b6040516100f89190610adb565b60405180910390f35b61011b60048036038101906101169190610c2b565b610284565b005b6101256103c4565b6040516101329190610dcc565b60405180910390f35b6101436104bf565b6040516101509190610dfd565b60405180910390f35b610173600480360381019061016e9190610e18565b6104e5565b005b6002818154811061018557600080fd5b90600052602060002090600202016000915090508060000180546101a890610e87565b80601f01602080910402602001604051908101604052809291908181526020018280546101d490610e87565b80156102215780601f106101f657610100808354040283529160200191610221565b820191906000526020600020905b81548152906001019060200180831161020457829003601f168201915b5050505050908060010154905082565b60008054906101000a900473ffffffffffffffffffffffffffffffffffffffff1681565b60036020528160005260406000206020528060005260406000206000915091509054906101000a900460ff1681565b600160009054906101000a900473ffffffffffffffffffffffffffffffffffffffff1673ffffffffffffffffffffffffffffffffffffffff163373ffffffffffffffffffffffffffffffffffffffff1614610314576040517f08c379a000000000000000000000000000000000000000000000000000000000815260040161030b90610f04565b60405180910390fd5b6002604051806040016040528083815260200160008152509080600181540180825580915050600190039060005260206000209060020201600090919091909150600082015181600001908161036a91906110c6565b506020820151816001015550507f9c770c289ab5bf7e57cb1d23c8ceae993aea46eb64847072fd3d78ca60d3e43260016002805490506103aa91906111c7565b826040516103b99291906111fb565b60405180910390a150565b60606002805480602002602001604051908101604052809291908181526020016000905b828210156104b6578382906000526020600020906002020160405180604001604052908160008201805461041b90610e87565b80601f016020809104026020016040519081016040528092919081815260200182805461044790610e87565b80156104945780601f1061046957610100808354040283529160200191610494565b820191906000526020600020905b81548152906001019060200180831161047757829003601f168201915b50505050508152602001600182015481525050815260200190600101906103e8565b50505050905090565b600160009054906101000a900473ffffffffffffffffffffffffffffffffffffffff1681565b600280549050821061052c576040517f08c379a000000000000000000000000000000000000000000000000000000000815260040161052390611277565b60405180910390fd5b600360003373ffffffffffffffffffffffffffffffffffffffff1673ffffffffffffffffffffffffffffffffffffffff168152602001908152602001600020600083815260200190815260200160002060009054906101000a900460ff16156105ca576040517f08c379a00000000000000000000000000000000000000000000000000000000081526004016105c1906112e3565b60405180910390fd5b8060008054906101000a900473ffffffffffffffffffffffffffffffffffffffff1673ffffffffffffffffffffffffffffffffffffffff166370a08231336040518263ffffffff1660e01b81526004016106249190610dfd565b602060405180830381865afa158015610641573d6000803e3d6000fd5b505050506040513d601f19601f820116820180604052508101906106659190611318565b10156106a6576040517f08c379a000000000000000000000000000000000000000000000000000000000815260040161069d90611391565b60405180910390fd5b60008054906101000a900473ffffffffffffffffffffffffffffffffffffffff1673ffffffffffffffffffffffffffffffffffffffff166323b872dd33600160009054906101000a900473ffffffffffffffffffffffffffffffffffffffff16846040518463ffffffff1660e01b8152600401610725939291906113b1565b6020604051808303816000875af1158015610744573d6000803e3d6000fd5b505050506040513d601f19601f820116820180604052508101906107689190611414565b50806002838154811061077e5761077d611441565b5b9060005260206000209060020201600101600082825461079e9190611470565b925050819055506001600360003373ffffffffffffffffffffffffffffffffffffffff1673ffffffffffffffffffffffffffffffffffffffff168152602001908152602001600020600084815260200190815260200160002060006101000a81548160ff0219169083151502179055503373ffffffffffffffffffffffffffffffffffffffff167fea66f58e474bc09f580000e81f31b334d171db387d0c6098ba47bd897741679b83836040516108569291906114a4565b60405180910390a25050565b6000604051905090565b600080fd5b600080fd5b6000819050919050565b61088981610876565b811461089457600080fd5b50565b6000813590506108a681610880565b92915050565b6000602082840312156108c2576108c161086c565b5b60006108d084828501610897565b91505092915050565b600081519050919050565b600082825260208201905092915050565b60005b838110156109135780820151818401526020810190506108f8565b60008484015250505050565b6000601f19601f8301169050919050565b600061093b826108d9565b61094581856108e4565b93506109558185602086016108f5565b61095e8161091f565b840191505092915050565b61097281610876565b82525050565b600060408201905081810360008301526109928185610930565b90506109a16020830184610969565b9392505050565b600073ffffffffffffffffffffffffffffffffffffffff82169050919050565b6000819050919050565b60006109ed6109e86109e3846109a8565b6109c8565b6109a8565b9050919050565b60006109ff826109d2565b9050919050565b6000610a11826109f4565b9050919050565b610a2181610a06565b82525050565b6000602082019050610a3c6000830184610a18565b92915050565b6000610a4d826109a8565b9050919050565b610a5d81610a42565b8114610a6857600080fd5b50565b600081359050610a7a81610a54565b92915050565b60008060408385031215610a9757610a9661086c565b5b6000610aa585828601610a6b565b9250506020610ab685828601610897565b9150509250929050565b60008115159050919050565b610ad581610ac0565b82525050565b6000602082019050610af06000830184610acc565b92915050565b600080fd5b600080fd5b7f4e487b7100000000000000000000000000000000000000000000000000000000600052604160045260246000fd5b610b388261091f565b810181811067ffffffffffffffff82111715610b5757610b56610b00565b5b80604052505050565b6000610b6a610862565b9050610b768282610b2f565b919050565b600067ffffffffffffffff821115610b9657610b95610b00565b5b610b9f8261091f565b9050602081019050919050565b82818337600083830152505050565b6000610bce610bc984610b7b565b610b60565b905082815260208101848484011115610bea57610be9610afb565b5b610bf5848285610bac565b509392505050565b600082601f830112610c1257610c11610af6565b5b8135610c22848260208601610bbb565b91505092915050565b600060208284031215610c4157610c4061086c565b5b600082013567ffffffffffffffff811115610c5f57610c5e610871565b5b610c6b84828501610bfd565b91505092915050565b600081519050919050565b600082825260208201905092915050565b6000819050602082019050919050565b600082825260208201905092915050565b6000610cbc826108d9565b610cc68185610ca0565b9350610cd68185602086016108f5565b610cdf8161091f565b840191505092915050565b610cf381610876565b82525050565b60006040830160008301518482036000860152610d168282610cb1565b9150506020830151610d2b6020860182610cea565b508091505092915050565b6000610d428383610cf9565b905092915050565b6000602082019050919050565b6000610d6282610c74565b610d6c8185610c7f565b935083602082028501610d7e85610c90565b8060005b85811015610dba5784840389528151610d9b8582610d36565b9450610da683610d4a565b925060208a01995050600181019050610d82565b50829750879550505050505092915050565b60006020820190508181036000830152610de68184610d57565b905092915050565b610df781610a42565b82525050565b6000602082019050610e126000830184610dee565b92915050565b60008060408385031215610e2f57610e2e61086c565b5b6000610e3d85828601610897565b9250506020610e4e85828601610897565b9150509250929050565b7f4e487b7100000000000000000000000000000000000000000000000000000000600052602260045260246000fd5b60006002820490506001821680610e9f57607f821691505b602082108103610eb257610eb1610e58565b5b50919050565b7f4f6e6c79206f776e65722063616e206372656174652070726f706f73616c7300600082015250565b6000610eee601f836108e4565b9150610ef982610eb8565b602082019050919050565b60006020820190508181036000830152610f1d81610ee1565b9050919050565b60008190508160005260206000209050919050565b60006020601f8301049050919050565b600082821b905092915050565b600060088302610f867fffffffffffffffffffffffffffffffffffffffffffffffffffffffffffffffff82610f49565b610f908683610f49565b95508019841693508086168417925050509392505050565b6000610fc3610fbe610fb984610876565b6109c8565b610876565b9050919050565b6000819050919050565b610fdd83610fa8565b610ff1610fe982610fca565b848454610f56565b825550505050565b600090565b611006610ff9565b611011818484610fd4565b505050565b5b818110156110355761102a600082610ffe565b600181019050611017565b5050565b601f82111561107a5761104b81610f24565b61105484610f39565b81016020851015611063578190505b61107761106f85610f39565b830182611016565b50505b505050565b600082821c905092915050565b600061109d6000198460080261107f565b1980831691505092915050565b60006110b6838361108c565b9150826002028217905092915050565b6110cf826108d9565b67ffffffffffffffff8111156110e8576110e7610b00565b5b6110f28254610e87565b6110fd828285611039565b600060209050601f831160018114611130576000841561111e578287015190505b61112885826110aa565b865550611190565b601f19841661113e86610f24565b60005b8281101561116657848901518255600182019150602085019450602081019050611141565b86831015611183578489015161117f601f89168261108c565b8355505b6001600288020188555050505b505050505050565b7f4e487b7100000000000000000000000000000000000000000000000000000000600052601160045260246000fd5b60006111d282610876565b91506111dd83610876565b92508282039050818111156111f5576111f4611198565b5b92915050565b60006040820190506112106000830185610969565b81810360208301526112228184610930565b90509392505050565b7f50726f706f73616c20646f6573206e6f74206578697374000000000000000000600082015250565b60006112616017836108e4565b915061126c8261122b565b602082019050919050565b6000602082019050818103600083015261129081611254565b9050919050565b7f416c726561647920766f74656400000000000000000000000000000000000000600082015250565b60006112cd600d836108e4565b91506112d882611297565b602082019050919050565b600060208201905081810360008301526112fc816112c0565b9050919050565b60008151905061131281610880565b92915050565b60006020828403121561132e5761132d61086c565b5b600061133c84828501611303565b91505092915050565b7f4e6f7420656e6f75676820746f6b656e73000000000000000000000000000000600082015250565b600061137b6011836108e4565b915061138682611345565b602082019050919050565b600060208201905081810360008301526113aa8161136e565b9050919050565b60006060820190506113c66000830186610dee565b6113d36020830185610dee565b6113e06040830184610969565b949350505050565b6113f181610ac0565b81146113fc57600080fd5b50565b60008151905061140e816113e8565b92915050565b60006020828403121561142a5761142961086c565b5b6000611438848285016113ff565b91505092915050565b7f4e487b7100000000000000000000000000000000000000000000000000000000600052603260045260246000fd5b600061147b82610876565b915061148683610876565b925082820190508082111561149e5761149d611198565b5b92915050565b60006040820190506114b96000830185610969565b6114c66020830184610969565b939250505056fea2646970667358221220aed7fe41fc547486028337b756e95632a5e66d0101ad67dd89adeed9c398fbfc64736f6c634300081c0033",
  "linkReferences": {},
  "deployedLinkReferences": {}
}