{"contracts/VotingSystem.sol":{"VotingSystem":{"abi":[{"inputs":[{"internalType":"address","name":"tokenAddress","type":"address"}],"stateMutability":"nonpayable","type":"constructor"},{"anonymous":false,"inputs":[{"indexed":false,"internalType":"uint256","name":"proposalId","type":"uint256"},{"indexed":false,"internalType":"string","name":"description","type":"string"}],"name":"ProposalCreated","type":"event"},{"anonymous":false,"inputs":[{"indexed":true,"internalType":"address","name":"voter","type":"address"},{"indexed":false,"internalType":"uint256","name":"proposalId","type":"uint256"},{"indexed":false,"internalType":"uint256","name":"amount","type":"uint256"}],"name":"Voted","type":"event"},{"inputs":[{"internalType":"string","name":"_description","type":"string"}],"name":"createProposal","outputs":[],"stateMutability":"nonpayable","type":"function"},{"inputs":[],"name":"getProposals","outputs":[{"components":[{"internalType":"string","name":"description","type":"string"},{"internalType":"uint256","name":"voteCount","type":"uint256"}],"internalType":"struct VotingSystem.Proposal[]","name":"","type":"tuple[]"}],"stateMutability":"view","type":"function"},{"inputs":[{"internalType":"address","name":"","type":"address"},{"internalType":"uint256","name":"","type":"uint256"}],"name":"hasVoted","outputs":[{"internalType":"bool","name":"","type":"bool"}],"stateMutability":"view","type":"function"},{"inputs":[],"name":"owner","outputs":[{"internalType":"address","name":"","type":"address"}],"stateMutability":"view","type":"function"},{"inputs":[{"internalType":"uint256","name":"","type":"uint256"}],"name":"proposals","outputs":[{"internalType":"string","name":"description","type":"string"},{"internalType":"uint256","name":"voteCount","type":"uint256"}],"stateMutability":"view","type":"function"},{"inputs":[{"internalType":"uint256","name":"proposalId","type":"uint256"},{"internalType":"uint256","name":"amount","type":"uint256"}],"name":"vote","outputs":[],"stateMutability":"nonpayable","type":"function"},{"inputs":[],"name":"voteToken","outputs":[{"internalType":"contract IERC20","name":"","type":"address"}],"stateMutability":"view","type":"function"}],"evm":{"bytecode":{"linkReferences":{},"object":"608060405234801561001057600080fd5b5060405161165b38038061165b8339818101604052810190610032919061011c565b806000806101000a81548173ffffffffffffffffffffffffffffffffffffffff021916908373ffffffffffffffffffffffffffffffffffffffff16021790555033600160006101000a81548173ffffffffffffffffffffffffffffffffffffffff021916908373ffffffffffffffffffffffffffffffffffffffff16021790555050610149565b600080fd5b600073ffffffffffffffffffffffffffffffffffffffff82169050919050565b60006100e9826100be565b9050919050565b6100f9816100de565b811461010457600080fd5b50565b600081519050610116816100f0565b92915050565b600060208284031215610132576101316100b9565b5b600061014084828501610107565b91505092915050565b611503806101586000396000f3fe608060405234801561001057600080fd5b506004361061007d5760003560e01c806349c2a1a61161005b57806349c2a1a61461010157806362564c481461011d5780638da5cb5b1461013b578063b384abef146101595761007d565b8063013cf08b14610082578063160d66ae146100b357806342545825146100d1575b600080fd5b61009c600480360381019061009791906108ac565b610175565b6040516100aa929190610978565b60405180910390f35b6100bb610231565b6040516100c89190610a27565b60405180910390f35b6100eb60048036038101906100e69190610a80565b610255565b6040516100f89190610adb565b60405180910390f35b61011b60048036038101906101169190610c2b565b610284565b005b6101256103c4565b6040516101329190610dcc565b60405180910390f35b6101436104bf565b6040516101509190610dfd565b60405180910390f35b610173600480360381019061016e9190610e18565b6104e5565b005b6002818154811061018557600080fd5b90600052602060002090600202016000915090508060000180546101a890610e87565b80601f01602080910402602001604051908101604052809291908181526020018280546101d490610e87565b80156102215780601f106101f657610100808354040283529160200191610221565b820191906000526020600020905b81548152906001019060200180831161020457829003601f168201915b5050505050908060010154905082565b60008054906101000a900473ffffffffffffffffffffffffffffffffffffffff1681565b60036020528160005260406000206020528060005260406000206000915091509054906101000a900460ff1681565b600160009054906101000a900473ffffffffffffffffffffffffffffffffffffffff1673ffffffffffffffffffffffffffffffffffffffff163373ffffffffffffffffffffffffffffffffffffffff1614610314576040517f08c379a000000000000000000000000000000000000000000000000000000000815260040161030b90610f04565b60405180910390fd5b6002604051806040016040528083815260200160008152509080600181540180825580915050600190039060005260206000209060020201600090919091909150600082015181600001908161036a91906110c6565b506020820151816001015550507f9c770c289ab5bf7e57cb1d23c8ceae993aea46eb64847072fd3d78ca60d3e43260016002805490506103aa91906111c7565b826040516103b99291906111fb565b60405180910390a150565b60606002805480602002602001604051908101604052809291908181526020016000905b828210156104b6578382906000526020600020906002020160405180604001604052908160008201805461041b90610e87565b80601f016020809104026020016040519081016040528092919081815260200182805461044790610e87565b80156104945780601f1061046957610100808354040283529160200191610494565b820191906000526020600020905b81548152906001019060200180831161047757829003601f168201915b50505050508152602001600182015481525050815260200190600101906103e8565b50505050905090565b600160009054906101000a900473ffffffffffffffffffffffffffffffffffffffff1681565b600280549050821061052c576040517f08c379a000000000000000000000000000000000000000000000000000000000815260040161052390611277565b60405180910390fd5b600360003373ffffffffffffffffffffffffffffffffffffffff1673ffffffffffffffffffffffffffffffffffffffff168152602001908152602001600020600083815260200190815260200160002060009054906101000a900460ff16156105ca576040517f08c379a00000000000000000000000000000000000000000000000000000000081526004016105c1906112e3565b60405180910390fd5b8060008054906101000a900473ffffffffffffffffffffffffffffffffffffffff1673ffffffffffffffffffffffffffffffffffffffff166370a08231336040518263ffffffff1660e01b81526004016106249190610dfd565b602060405180830381865afa158015610641573d6000803e3d6000fd5b505050506040513d601f19601f820116820180604052508101906106659190611318565b10156106a6576040517f08c379a000000000000000000000000000000000000000000000000000000000815260040161069d90611391565b60405180910390fd5b60008054906101000a900473ffffffffffffffffffffffffffffffffffffffff1673ffffffffffffffffffffffffffffffffffffffff166323b872dd33600160009054906101000a900473ffffffffffffffffffffffffffffffffffffffff16846040518463ffffffff1660e01b8152600401610725939291906113b1565b6020604051808303816000875af1158015610744573d6000803e3d6000fd5b505050506040513d601f19601f820116820180604052508101906107689190611414565b50806002838154811061077e5761077d611441565b5b9060005260206000209060020201600101600082825461079e9190611470565b925050819055506001600360003373ffffffffffffffffffffffffffffffffffffffff1673ffffffffffffffffffffffffffffffffffffffff168152602001908152602001600020600084815260200190815260200160002060006101000a81548160ff0219169083151502179055503373ffffffffffffffffffffffffffffffffffffffff167fea66f58e474bc09f580000e81f31b334d171db387d0c6098ba47bd897741679b83836040516108569291906114a4565b60405180910390a25050565b6000604051905090565b600080fd5b600080fd5b6000819050919050565b61088981610876565b811461089457600080fd5b50565b6000813590506108a681610880565b92915050565b6000602082840312156108c2576108c161086c565b5b60006108d084828501610897565b91505092915050565b600081519050919050565b600082825260208201905092915050565b60005b838110156109135780820151818401526020810190506108f8565b60008484015250505050565b6000601f19601f8301169050919050565b600061093b826108d9565b61094581856108e4565b93506109558185602086016108f5565b61095e8161091f565b840191505092915050565b61097281610876565b82525050565b600060408201905081810360008301526109928185610930565b90506109a16020830184610969565b9392505050565b600073ffffffffffffffffffffffffffffffffffffffff82169050919050565b6000819050919050565b60006109ed6109e86109e3846109a8565b6109c8565b6109a8565b9050919050565b60006109ff826109d2565b9050919050565b6000610a11826109f4565b9050919050565b610a2181610a06565b82525050565b6000602082019050610a3c6000830184610a18565b92915050565b6000610a4d826109a8565b9050919050565b610a5d81610a42565b8114610a6857600080fd5b50565b600081359050610a7a81610a54565b92915050565b60008060408385031215610a9757610a9661086c565b5b6000610aa585828601610a6b565b9250506020610ab685828601610897565b9150509250929050565b60008115159050919050565b610ad581610ac0565b82525050565b6000602082019050610af06000830184610acc565b92915050565b600080fd5b600080fd5b7f4e487b7100000000000000000000000000000000000000000000000000000000600052604160045260246000fd5b610b388261091f565b810181811067ffffffffffffffff82111715610b5757610b56610b00565b5b80604052505050565b6000610b6a610862565b9050610b768282610b2f565b919050565b600067ffffffffffffffff821115610b9657610b95610b00565b5b610b9f8261091f565b9050602081019050919050565b82818337600083830152505050565b6000610bce610bc984610b7b565b610b60565b905082815260208101848484011115610bea57610be9610afb565b5b610bf5848285610bac565b509392505050565b600082601f830112610c1257610c11610af6565b5b8135610c22848260208601610bbb565b91505092915050565b600060208284031215610c4157610c4061086c565b5b600082013567ffffffffffffffff811115610c5f57610c5e610871565b5b610c6b84828501610bfd565b91505092915050565b600081519050919050565b600082825260208201905092915050565b6000819050602082019050919050565b600082825260208201905092915050565b6000610cbc826108d9565b610cc68185610ca0565b9350610cd68185602086016108f5565b610cdf8161091f565b840191505092915050565b610cf381610876565b82525050565b60006040830160008301518482036000860152610d168282610cb1565b9150506020830151610d2b6020860182610cea565b508091505092915050565b6000610d428383610cf9565b905092915050565b6000602082019050919050565b6000610d6282610c74565b610d6c8185610c7f565b935083602082028501610d7e85610c90565b8060005b85811015610dba5784840389528151610d9b8582610d36565b9450610da683610d4a565b925060208a01995050600181019050610d82565b50829750879550505050505092915050565b60006020820190508181036000830152610de68184610d57565b905092915050565b610df781610a42565b82525050565b6000602082019050610e126000830184610dee565b92915050565b60008060408385031215610e2f57610e2e61086c565b5b6000610e3d85828601610897565b9250506020610e4e85828601610897565b9150509250929050565b7f4e487b7100000000000000000000000000000000000000000000000000000000600052602260045260246000fd5b60006002820490506001821680610e9f57607f821691505b602082108103610eb257610eb1610e58565b5b50919050565b7f4f6e6c79206f776e65722063616e206372656174652070726f706f73616c7300600082015250565b6000610eee601f836108e4565b9150610ef982610eb8565b602082019050919050565b60006020820190508181036000830152610f1d81610ee1565b9050919050565b60008190508160005260206000209050919050565b60006020601f8301049050919050565b600082821b905092915050565b600060088302610f867fffffffffffffffffffffffffffffffffffffffffffffffffffffffffffffffff82610f49565b610f908683610f49565b95508019841693508086168417925050509392505050565b6000610fc3610fbe610fb984610876565b6109c8565b610876565b9050919050565b6000819050919050565b610fdd83610fa8565b610ff1610fe982610fca565b848454610f56565b825550505050565b600090565b611006610ff9565b611011818484610fd4565b505050565b5b818110156110355761102a600082610ffe565b600181019050611017565b5050565b601f82111561107a5761104b81610f24565b61105484610f39565b81016020851015611063578190505b61107761106f85610f39565b830182611016565b50505b505050565b600082821c905092915050565b600061109d6000198460080261107f565b1980831691505092915050565b60006110b6838361108c565b9150826002028217905092915050565b6110cf826108d9565b67ffffffffffffffff8111156110e8576110e7610b00565b5b6110f28254610e87565b6110fd828285611039565b600060209050601f831160018114611130576000841561111e578287015190505b61112885826110aa565b865550611190565b601f19841661113e86610f24565b60005b8281101561116657848901518255600182019150602085019450602081019050611141565b86831015611183578489015161117f601f89168261108c565b8355505b6001600288020188555050505b505050505050565b7f4e487b7100000000000000000000000000000000000000000000000000000000600052601160045260246000fd5b60006111d282610876565b91506111dd83610876565b92508282039050818111156111f5576111f4611198565b5b92915050565b60006040820190506112106000830185610969565b81810360208301526112228184610930565b90509392505050565b7f50726f706f73616c20646f6573206e6f74206578697374000000000000000000600082015250565b60006112616017836108e4565b915061126c8261122b565b602082019050919050565b6000602082019050818103600083015261129081611254565b9050919050565b7f416c726561647920766f74656400000000000000000000000000000000000000600082015250565b60006112cd600d836108e4565b91506112d882611297565b602082019050919050565b600060208201905081810360008301526112fc816112c0565b9050919050565b60008151905061131281610880565b92915050565b60006020828403121561132e5761132d61086c565b5b600061133c84828501611303565b91505092915050565b7f4e6f7420656e6f75676820746f6b656e73000000000000000000000000000000600082015250565b600061137b6011836108e4565b915061138682611345565b602082019050919050565b600060208201905081810360008301526113aa8161136e565b9050919050565b60006060820190506113c66000830186610dee565b6113d36020830185610dee565b6113e06040830184610969565b949350505050565b6113f181610ac0565b81146113fc57600080fd5b50565b60008151905061140e816113e8565b92915050565b60006020828403121561142a5761142961086c565b5b6000611438848285016113ff565b91505092915050565b7f4e487b7100000000000000000000000000000000000000000000000000000000600052603260045260246000fd5b600061147b82610876565b915061148683610876565b925082820190508082111561149e5761149d611198565b5b92915050565b60006040820190506114b96000830185610969565b6114c66020830184610969565b939250505056fea2646970667358221220a581928e663361164dad884bd0e5c398cdb562fc56adaaf0cd7ad6dc4063281864736f6c634300081c0033","opcodes":"PUSH1 0x80 PUSH1 0x40 MSTORE CALLVALUE DUP1 ISZERO PUSH2 0x10 JUMPI PUSH1 0x0 DUP1 REVERT JUMPDEST POP PUSH1 0x40 MLOAD PUSH2 0x165B CODESIZE SUB DUP1 PUSH2 0x165B DUP4 CODECOPY DUP2 DUP2 ADD PUSH1 0x40 MSTORE DUP2 ADD SWAP1 PUSH2 0x32 SWAP2 SWAP1 PUSH2 0x11C JUMP JUMPDEST DUP1 PUSH1 0x0 DUP1 PUSH2 0x100 EXP DUP2 SLOAD DUP2 PUSH20 0xFFFFFFFFFFFFFFFFFFFFFFFFFFFFFFFFFFFFFFFF MUL NOT AND SWAP1 DUP4 PUSH20 0xFFFFFFFFFFFFFFFFFFFFFFFFFFFFFFFFFFFFFFFF AND MUL OR SWAP1 SSTORE POP CALLER PUSH1 0x1 PUSH1 0x0 PUSH2 0x100 EXP DUP2 SLOAD DUP2 PUSH20 0xFFFFFFFFFFFFFFFFFFFFFFFFFFFFFFFFFFFFFFFF MUL NOT AND SWAP1 DUP4 PUSH20 0xFFFFFFFFFFFFFFFFFFFFFFFFFFFFFFFFFFFFFFFF AND MUL OR SWAP1 SSTORE POP POP PUSH2 0x149 JUMP JUMPDEST PUSH1 0x0 DUP1 REVERT JUMPDEST PUSH1 0x0 PUSH20 0xFFFFFFFFFFFFFFFFFFFFFFFFFFFFFFFFFFFFFFFF DUP3 AND SWAP1 POP SWAP2 SWAP1 POP JUMP JUMPDEST PUSH1 0x0 PUSH2 0xE9 DUP3 PUSH2 0xBE JUMP JUMPDEST SWAP1 POP SWAP2 SWAP1 POP JUMP JUMPDEST PUSH2 0xF9 DUP2 PUSH2 0xDE JUMP JUMPDEST DUP2 EQ PUSH2 0x104 JUMPI PUSH1 0x0 DUP1 REVERT JUMPDEST POP JUMP JUMPDEST PUSH1 0x0 DUP2 MLOAD SWAP1 POP PUSH2 0x116 DUP2 PUSH2 0xF0 JUMP JUMPDEST SWAP3 SWAP2 POP POP JUMP JUMPDEST PUSH1 0x0 PUSH1 0x20 DUP3 DUP5 SUB SLT ISZERO PUSH2 0x132 JUMPI PUSH2 0x131 PUSH2 0xB9 JUMP JUMPDEST JUMPDEST PUSH1 0x0 PUSH2 0x140 DUP5 DUP3 DUP6 ADD PUSH2 0x107 JUMP JUMPDEST SWAP2 POP POP SWAP3 SWAP2 POP POP JUMP JUMPDEST PUSH2 0x1503 DUP1 PUSH2 0x158 PUSH1 0x0 CODECOPY PUSH1 0x0 RETURN INVALID PUSH1 0x80 PUSH1 0x40 MSTORE CALLVALUE DUP1 ISZERO PUSH2 0x10 JUMPI PUSH1 0x0 DUP1 REVERT JUMPDEST POP PUSH1 0x4 CALLDATASIZE LT PUSH2 0x7D JUMPI PUSH1 0x0 CALLDATALOAD PUSH1 0xE0 SHR DUP1 PUSH4 0x49C2A1A6 GT PUSH2 0x5B JUMPI DUP1 PUSH4 0x49C2A1A6 EQ PUSH2 0x101 JUMPI DUP1 PUSH4 0x62564C48 EQ PUSH2 0x11D JUMPI DUP1 PUSH4 0x8DA5CB5B EQ PUSH2 0x13B JUMPI DUP1 PUSH4 0xB384ABEF EQ PUSH2 0x159 JUMPI PUSH2 0x7D JUMP JUMPDEST DUP1 PUSH4 0x13CF08B EQ PUSH2 0x82 JUMPI DUP1 PUSH4 0x160D66AE EQ PUSH2 0xB3 JUMPI DUP1 PUSH4 0x42545825 EQ PUSH2 0xD1 JUMPI JUMPDEST PUSH1 0x0 DUP1 REVERT JUMPDEST PUSH2 0x9C PUSH1 0x4 DUP1 CALLDATASIZE SUB DUP2 ADD SWAP1 PUSH2 0x97 SWAP2 SWAP1 PUSH2 0x8AC JUMP JUMPDEST PUSH2 0x175 JUMP JUMPDEST PUSH1 0x40 MLOAD PUSH2 0xAA SWAP3 SWAP2 SWAP1 PUSH2 0x978 JUMP JUMPDEST PUSH1 0x40 MLOAD DUP1 SWAP2 SUB SWAP1 RETURN JUMPDEST PUSH2 0xBB PUSH2 0x231 JUMP JUMPDEST PUSH1 0x40 MLOAD PUSH2 0xC8 SWAP2 SWAP1 PUSH2 0xA27 JUMP JUMPDEST PUSH1 0x40 MLOAD DUP1 SWAP2 SUB SWAP1 RETURN JUMPDEST PUSH2 0xEB PUSH1 0x4 DUP1 CALLDATASIZE SUB DUP2 ADD SWAP1 PUSH2 0xE6 SWAP2 SWAP1 PUSH2 0xA80 JUMP JUMPDEST PUSH2 0x255 JUMP JUMPDEST PUSH1 0x40 MLOAD PUSH2 0xF8 SWAP2 SWAP1 PUSH2 0xADB JUMP JUMPDEST PUSH1 0x40 MLOAD DUP1 SWAP2 SUB SWAP1 RETURN JUMPDEST PUSH2 0x11B PUSH1 0x4 DUP1 CALLDATASIZE SUB DUP2 ADD SWAP1 PUSH2 0x116 SWAP2 SWAP1 PUSH2 0xC2B JUMP JUMPDEST PUSH2 0x284 JUMP JUMPDEST STOP JUMPDEST PUSH2 0x125 PUSH2 0x3C4 JUMP JUMPDEST PUSH1 0x40 MLOAD PUSH2 0x132 SWAP2 SWAP1 PUSH2 0xDCC JUMP JUMPDEST PUSH1 0x40 MLOAD DUP1 SWAP2 SUB SWAP1 RETURN JUMPDEST PUSH2 0x143 PUSH2 0x4BF JUMP JUMPDEST PUSH1 0x40 MLOAD PUSH2 0x150 SWAP2 SWAP1 PUSH2 0xDFD JUMP JUMPDEST PUSH1 0x40 MLOAD DUP1 SWAP2 SUB SWAP1 RETURN JUMPDEST PUSH2 0x173 PUSH1 0x4 DUP1 CALLDATASIZE SUB DUP2 ADD SWAP1 PUSH2 0x16E SWAP2 SWAP1 PUSH2 0xE18 JUMP JUMPDEST PUSH2 0x4E5 JUMP JUMPDEST STOP JUMPDEST PUSH1 0x2 DUP2 DUP2 SLOAD DUP2 LT PUSH2 0x185 JUMPI PUSH1 0x0 DUP1 REVERT JUMPDEST SWAP1 PUSH1 0x0 MSTORE PUSH1 0x20 PUSH1 0x0 KECCAK256 SWAP1 PUSH1 0x2 MUL ADD PUSH1 0x0 SWAP2 POP SWAP1 POP DUP1 PUSH1 0x0 ADD DUP1 SLOAD PUSH2 0x1A8 SWAP1 PUSH2 0xE87 JUMP JUMPDEST DUP1 PUSH1 0x1F ADD PUSH1 0x20 DUP1 SWAP2 DIV MUL PUSH1 0x20 ADD PUSH1 0x40 MLOAD SWAP1 DUP2 ADD PUSH1 0x40 MSTORE DUP1 SWAP3 SWAP2 SWAP1 DUP2 DUP2 MSTORE PUSH1 0x20 ADD DUP3 DUP1 SLOAD PUSH2 0x1D4 SWAP1 PUSH2 0xE87 JUMP JUMPDEST DUP1 ISZERO PUSH2 0x221 JUMPI DUP1 PUSH1 0x1F LT PUSH2 0x1F6 JUMPI PUSH2 0x100 DUP1 DUP4 SLOAD DIV MUL DUP4 MSTORE SWAP2 PUSH1 0x20 ADD SWAP2 PUSH2 0x221 JUMP JUMPDEST DUP3 ADD SWAP2 SWAP1 PUSH1 0x0 MSTORE PUSH1 0x20 PUSH1 0x0 KECCAK256 SWAP1 JUMPDEST DUP2 SLOAD DUP2 MSTORE SWAP1 PUSH1 0x1 ADD SWAP1 PUSH1 0x20 ADD DUP1 DUP4 GT PUSH2 0x204 JUMPI DUP3 SWAP1 SUB PUSH1 0x1F AND DUP3 ADD SWAP2 JUMPDEST POP POP POP POP POP SWAP1 DUP1 PUSH1 0x1 ADD SLOAD SWAP1 POP DUP3 JUMP JUMPDEST PUSH1 0x0 DUP1 SLOAD SWAP1 PUSH2 0x100 EXP SWAP1 DIV PUSH20 0xFFFFFFFFFFFFFFFFFFFFFFFFFFFFFFFFFFFFFFFF AND DUP2 JUMP JUMPDEST PUSH1 0x3 PUSH1 0x20 MSTORE DUP2 PUSH1 0x0 MSTORE PUSH1 0x40 PUSH1 0x0 KECCAK256 PUSH1 0x20 MSTORE DUP1 PUSH1 0x0 MSTORE PUSH1 0x40 PUSH1 0x0 KECCAK256 PUSH1 0x0 SWAP2 POP SWAP2 POP SWAP1 SLOAD SWAP1 PUSH2 0x100 EXP SWAP1 DIV PUSH1 0xFF AND DUP2 JUMP JUMPDEST PUSH1 0x1 PUSH1 0x0 SWAP1 SLOAD SWAP1 PUSH2 0x100 EXP SWAP1 DIV PUSH20 0xFFFFFFFFFFFFFFFFFFFFFFFFFFFFFFFFFFFFFFFF AND PUSH20 0xFFFFFFFFFFFFFFFFFFFFFFFFFFFFFFFFFFFFFFFF AND CALLER PUSH20 0xFFFFFFFFFFFFFFFFFFFFFFFFFFFFFFFFFFFFFFFF AND EQ PUSH2 0x314 JUMPI PUSH1 0x40 MLOAD PUSH32 0x8C379A000000000000000000000000000000000000000000000000000000000 DUP2 MSTORE PUSH1 0x4 ADD PUSH2 0x30B SWAP1 PUSH2 0xF04 JUMP JUMPDEST PUSH1 0x40 MLOAD DUP1 SWAP2 SUB SWAP1 REVERT JUMPDEST PUSH1 0x2 PUSH1 0x40 MLOAD DUP1 PUSH1 0x40 ADD PUSH1 0x40 MSTORE DUP1 DUP4 DUP2 MSTORE PUSH1 0x20 ADD PUSH1 0x0 DUP2 MSTORE POP SWAP1 DUP1 PUSH1 0x1 DUP2 SLOAD ADD DUP1 DUP3 SSTORE DUP1 SWAP2 POP POP PUSH1 0x1 SWAP1 SUB SWAP1 PUSH1 0x0 MSTORE PUSH1 0x20 PUSH1 0x0 KECCAK256 SWAP1 PUSH1 0x2 MUL ADD PUSH1 0x0 SWAP1 SWAP2 SWAP1 SWAP2 SWAP1 SWAP2 POP PUSH1 0x0 DUP3 ADD MLOAD DUP2 PUSH1 0x0 ADD SWAP1 DUP2 PUSH2 0x36A SWAP2 SWAP1 PUSH2 0x10C6 JUMP JUMPDEST POP PUSH1 0x20 DUP3 ADD MLOAD DUP2 PUSH1 0x1 ADD SSTORE POP POP PUSH32 0x9C770C289AB5BF7E57CB1D23C8CEAE993AEA46EB64847072FD3D78CA60D3E432 PUSH1 0x1 PUSH1 0x2 DUP1 SLOAD SWAP1 POP PUSH2 0x3AA SWAP2 SWAP1 PUSH2 0x11C7 JUMP JUMPDEST DUP3 PUSH1 0x40 MLOAD PUSH2 0x3B9 SWAP3 SWAP2 SWAP1 PUSH2 0x11FB JUMP JUMPDEST PUSH1 0x40 MLOAD DUP1 SWAP2 SUB SWAP1 LOG1 POP JUMP JUMPDEST PUSH1 0x60 PUSH1 0x2 DUP1 SLOAD DUP1 PUSH1 0x20 MUL PUSH1 0x20 ADD PUSH1 0x40 MLOAD SWAP1 DUP2 ADD PUSH1 0x40 MSTORE DUP1 SWAP3 SWAP2 SWAP1 DUP2 DUP2 MSTORE PUSH1 0x20 ADD PUSH1 0x0 SWAP1 JUMPDEST DUP3 DUP3 LT ISZERO PUSH2 0x4B6 JUMPI DUP4 DUP3 SWAP1 PUSH1 0x0 MSTORE PUSH1 0x20 PUSH1 0x0 KECCAK256 SWAP1 PUSH1 0x2 MUL ADD PUSH1 0x40 MLOAD DUP1 PUSH1 0x40 ADD PUSH1 0x40 MSTORE SWAP1 DUP2 PUSH1 0x0 DUP3 ADD DUP1 SLOAD PUSH2 0x41B SWAP1 PUSH2 0xE87 JUMP JUMPDEST DUP1 PUSH1 0x1F ADD PUSH1 0x20 DUP1 SWAP2 DIV MUL PUSH1 0x20 ADD PUSH1 0x40 MLOAD SWAP1 DUP2 ADD PUSH1 0x40 MSTORE DUP1 SWAP3 SWAP2 SWAP1 DUP2 DUP2 MSTORE PUSH1 0x20 ADD DUP3 DUP1 SLOAD PUSH2 0x447 SWAP1 PUSH2 0xE87 JUMP JUMPDEST DUP1 ISZERO PUSH2 0x494 JUMPI DUP1 PUSH1 0x1F LT PUSH2 0x469 JUMPI PUSH2 0x100 DUP1 DUP4 SLOAD DIV MUL DUP4 MSTORE SWAP2 PUSH1 0x20 ADD SWAP2 PUSH2 0x494 JUMP JUMPDEST DUP3 ADD SWAP2 SWAP1 PUSH1 0x0 MSTORE PUSH1 0x20 PUSH1 0x0 KECCAK256 SWAP1 JUMPDEST DUP2 SLOAD DUP2 MSTORE SWAP1 PUSH1 0x1 ADD SWAP1 PUSH1 0x20 ADD DUP1 DUP4 GT PUSH2 0x477 JUMPI DUP3 SWAP1 SUB PUSH1 0x1F AND DUP3 ADD SWAP2 JUMPDEST POP POP POP POP POP DUP2 MSTORE PUSH1 0x20 ADD PUSH1 0x1 DUP3 ADD SLOAD DUP2 MSTORE POP POP DUP2 MSTORE PUSH1 0x20 ADD SWAP1 PUSH1 0x1 ADD SWAP1 PUSH2 0x3E8 JUMP JUMPDEST POP POP POP POP SWAP1 POP SWAP1 JUMP JUMPDEST PUSH1 0x1 PUSH1 0x0 SWAP1 SLOAD SWAP1 PUSH2 0x100 EXP SWAP1 DIV PUSH20 0xFFFFFFFFFFFFFFFFFFFFFFFFFFFFFFFFFFFFFFFF AND DUP2 JUMP JUMPDEST PUSH1 0x2 DUP1 SLOAD SWAP1 POP DUP3 LT PUSH2 0x52C JUMPI PUSH1 0x40 MLOAD PUSH32 0x8C379A000000000000000000000000000000000000000000000000000000000 DUP2 MSTORE PUSH1 0x4 ADD PUSH2 0x523 SWAP1 PUSH2 0x1277 JUMP JUMPDEST PUSH1 0x40 MLOAD DUP1 SWAP2 SUB SWAP1 REVERT JUMPDEST PUSH1 0x3 PUSH1 0x0 CALLER PUSH20 0xFFFFFFFFFFFFFFFFFFFFFFFFFFFFFFFFFFFFFFFF AND PUSH20 0xFFFFFFFFFFFFFFFFFFFFFFFFFFFFFFFFFFFFFFFF AND DUP2 MSTORE PUSH1 0x20 ADD SWAP1 DUP2 MSTORE PUSH1 0x20 ADD PUSH1 0x0 KECCAK256 PUSH1 0x0 DUP4 DUP2 MSTORE PUSH1 0x20 ADD SWAP1 DUP2 MSTORE PUSH1 0x20 ADD PUSH1 0x0 KECCAK256 PUSH1 0x0 SWAP1 SLOAD SWAP1 PUSH2 0x100 EXP SWAP1 DIV PUSH1 0xFF AND ISZERO PUSH2 0x5CA JUMPI PUSH1 0x40 MLOAD PUSH32 0x8C379A000000000000000000000000000000000000000000000000000000000 DUP2 MSTORE PUSH1 0x4 ADD PUSH2 0x5C1 SWAP1 PUSH2 0x12E3 JUMP JUMPDEST PUSH1 0x40 MLOAD DUP1 SWAP2 SUB SWAP1 REVERT JUMPDEST DUP1 PUSH1 0x0 DUP1 SLOAD SWAP1 PUSH2 0x100 EXP SWAP1 DIV PUSH20 0xFFFFFFFFFFFFFFFFFFFFFFFFFFFFFFFFFFFFFFFF AND PUSH20 0xFFFFFFFFFFFFFFFFFFFFFFFFFFFFFFFFFFFFFFFF AND PUSH4 0x70A08231 CALLER PUSH1 0x40 MLOAD DUP3 PUSH4 0xFFFFFFFF AND PUSH1 0xE0 SHL DUP2 MSTORE PUSH1 0x4 ADD PUSH2 0x624 SWAP2 SWAP1 PUSH2 0xDFD JUMP JUMPDEST PUSH1 0x20 PUSH1 0x40 MLOAD DUP1 DUP4 SUB DUP2 DUP7 GAS STATICCALL ISZERO DUP1 ISZERO PUSH2 0x641 JUMPI RETURNDATASIZE PUSH1 0x0 DUP1 RETURNDATACOPY RETURNDATASIZE PUSH1 0x0 REVERT JUMPDEST POP POP POP POP PUSH1 0x40 MLOAD RETURNDATASIZE PUSH1 0x1F NOT PUSH1 0x1F DUP3 ADD AND DUP3 ADD DUP1 PUSH1 0x40 MSTORE POP DUP2 ADD SWAP1 PUSH2 0x665 SWAP2 SWAP1 PUSH2 0x1318 JUMP JUMPDEST LT ISZERO PUSH2 0x6A6 JUMPI PUSH1 0x40 MLOAD PUSH32 0x8C379A000000000000000000000000000000000000000000000000000000000 DUP2 MSTORE PUSH1 0x4 ADD PUSH2 0x69D SWAP1 PUSH2 0x1391 JUMP JUMPDEST PUSH1 0x40 MLOAD DUP1 SWAP2 SUB SWAP1 REVERT JUMPDEST PUSH1 0x0 DUP1 SLOAD SWAP1 PUSH2 0x100 EXP SWAP1 DIV PUSH20 0xFFFFFFFFFFFFFFFFFFFFFFFFFFFFFFFFFFFFFFFF AND PUSH20 0xFFFFFFFFFFFFFFFFFFFFFFFFFFFFFFFFFFFFFFFF AND PUSH4 0x23B872DD CALLER PUSH1 0x1 PUSH1 0x0 SWAP1 SLOAD SWAP1 PUSH2 0x100 EXP SWAP1 DIV PUSH20 0xFFFFFFFFFFFFFFFFFFFFFFFFFFFFFFFFFFFFFFFF AND DUP5 PUSH1 0x40 MLOAD DUP5 PUSH4 0xFFFFFFFF AND PUSH1 0xE0 SHL DUP2 MSTORE PUSH1 0x4 ADD PUSH2 0x725 SWAP4 SWAP3 SWAP2 SWAP1 PUSH2 0x13B1 JUMP JUMPDEST PUSH1 0x20 PUSH1 0x40 MLOAD DUP1 DUP4 SUB DUP2 PUSH1 0x0 DUP8 GAS CALL ISZERO DUP1 ISZERO PUSH2 0x744 JUMPI RETURNDATASIZE PUSH1 0x0 DUP1 RETURNDATACOPY RETURNDATASIZE PUSH1 0x0 REVERT JUMPDEST POP POP POP POP PUSH1 0x40 MLOAD RETURNDATASIZE PUSH1 0x1F NOT PUSH1 0x1F DUP3 ADD AND DUP3 ADD DUP1 PUSH1 0x40 MSTORE POP DUP2 ADD SWAP1 PUSH2 0x768 SWAP2 SWAP1 PUSH2 0x1414 JUMP JUMPDEST POP DUP1 PUSH1 0x2 DUP4 DUP2 SLOAD DUP2 LT PUSH2 0x77E JUMPI PUSH2 0x77D PUSH2 0x1441 JUMP JUMPDEST JUMPDEST SWAP1 PUSH1 0x0 MSTORE PUSH1 0x20 PUSH1 0x0 KECCAK256 SWAP1 PUSH1 0x2 MUL ADD PUSH1 0x1 ADD PUSH1 0x0 DUP3 DUP3 SLOAD PUSH2 0x79E SWAP2 SWAP1 PUSH2 0x1470 JUMP JUMPDEST SWAP3 POP POP DUP2 SWAP1 SSTORE POP PUSH1 0x1 PUSH1 0x3 PUSH1 0x0 CALLER PUSH20 0xFFFFFFFFFFFFFFFFFFFFFFFFFFFFFFFFFFFFFFFF AND PUSH20 0xFFFFFFFFFFFFFFFFFFFFFFFFFFFFFFFFFFFFFFFF AND DUP2 MSTORE PUSH1 0x20 ADD SWAP1 DUP2 MSTORE PUSH1 0x20 ADD PUSH1 0x0 KECCAK256 PUSH1 0x0 DUP5 DUP2 MSTORE PUSH1 0x20 ADD SWAP1 DUP2 MSTORE PUSH1 0x20 ADD PUSH1 0x0 KECCAK256 PUSH1 0x0 PUSH2 0x100 EXP DUP2 SLOAD DUP2 PUSH1 0xFF MUL NOT AND SWAP1 DUP4 ISZERO ISZERO MUL OR SWAP1 SSTORE POP CALLER PUSH20 0xFFFFFFFFFFFFFFFFFFFFFFFFFFFFFFFFFFFFFFFF AND PUSH32 0xEA66F58E474BC09F580000E81F31B334D171DB387D0C6098BA47BD897741679B DUP4 DUP4 PUSH1 0x40 MLOAD PUSH2 0x856 SWAP3 SWAP2 SWAP1 PUSH2 0x14A4 JUMP JUMPDEST PUSH1 0x40 MLOAD DUP1 SWAP2 SUB SWAP1 LOG2 POP POP JUMP JUMPDEST PUSH1 0x0 PUSH1 0x40 MLOAD SWAP1 POP SWAP1 JUMP JUMPDEST PUSH1 0x0 DUP1 REVERT JUMPDEST PUSH1 0x0 DUP1 REVERT JUMPDEST PUSH1 0x0 DUP2 SWAP1 POP SWAP2 SWAP1 POP JUMP JUMPDEST PUSH2 0x889 DUP2 PUSH2 0x876 JUMP JUMPDEST DUP2 EQ PUSH2 0x894 JUMPI PUSH1 0x0 DUP1 REVERT JUMPDEST POP JUMP JUMPDEST PUSH1 0x0 DUP2 CALLDATALOAD SWAP1 POP PUSH2 0x8A6 DUP2 PUSH2 0x880 JUMP JUMPDEST SWAP3 SWAP2 POP POP JUMP JUMPDEST PUSH1 0x0 PUSH1 0x20 DUP3 DUP5 SUB SLT ISZERO PUSH2 0x8C2 JUMPI PUSH2 0x8C1 PUSH2 0x86C JUMP JUMPDEST JUMPDEST PUSH1 0x0 PUSH2 0x8D0 DUP5 DUP3 DUP6 ADD PUSH2 0x897 JUMP JUMPDEST SWAP2 POP POP SWAP3 SWAP2 POP POP JUMP JUMPDEST PUSH1 0x0 DUP2 MLOAD SWAP1 POP SWAP2 SWAP1 POP JUMP JUMPDEST PUSH1 0x0 DUP3 DUP3 MSTORE PUSH1 0x20 DUP3 ADD SWAP1 POP SWAP3 SWAP2 POP POP JUMP JUMPDEST PUSH1 0x0 JUMPDEST DUP4 DUP2 LT ISZERO PUSH2 0x913 JUMPI DUP1 DUP3 ADD MLOAD DUP2 DUP5 ADD MSTORE PUSH1 0x20 DUP2 ADD SWAP1 POP PUSH2 0x8F8 JUMP JUMPDEST PUSH1 0x0 DUP5 DUP5 ADD MSTORE POP POP POP POP JUMP JUMPDEST PUSH1 0x0 PUSH1 0x1F NOT PUSH1 0x1F DUP4 ADD AND SWAP1 POP SWAP2 SWAP1 POP JUMP JUMPDEST PUSH1 0x0 PUSH2 0x93B DUP3 PUSH2 0x8D9 JUMP JUMPDEST PUSH2 0x945 DUP2 DUP6 PUSH2 0x8E4 JUMP JUMPDEST SWAP4 POP PUSH2 0x955 DUP2 DUP6 PUSH1 0x20 DUP7 ADD PUSH2 0x8F5 JUMP JUMPDEST PUSH2 0x95E DUP2 PUSH2 0x91F JUMP JUMPDEST DUP5 ADD SWAP2 POP POP SWAP3 SWAP2 POP POP JUMP JUMPDEST PUSH2 0x972 DUP2 PUSH2 0x876 JUMP JUMPDEST DUP3 MSTORE POP POP JUMP JUMPDEST PUSH1 0x0 PUSH1 0x40 DUP3 ADD SWAP1 POP DUP2 DUP2 SUB PUSH1 0x0 DUP4 ADD MSTORE PUSH2 0x992 DUP2 DUP6 PUSH2 0x930 JUMP JUMPDEST SWAP1 POP PUSH2 0x9A1 PUSH1 0x20 DUP4 ADD DUP5 PUSH2 0x969 JUMP JUMPDEST SWAP4 SWAP3 POP POP POP JUMP JUMPDEST PUSH1 0x0 PUSH20 0xFFFFFFFFFFFFFFFFFFFFFFFFFFFFFFFFFFFFFFFF DUP3 AND SWAP1 POP SWAP2 SWAP1 POP JUMP JUMPDEST PUSH1 0x0 DUP2 SWAP1 POP SWAP2 SWAP1 POP JUMP JUMPDEST PUSH1 0x0 PUSH2 0x9ED PUSH2 0x9E8 PUSH2 0x9E3 DUP5 PUSH2 0x9A8 JUMP JUMPDEST PUSH2 0x9C8 JUMP JUMPDEST PUSH2 0x9A8 JUMP JUMPDEST SWAP1 POP SWAP2 SWAP1 POP JUMP JUMPDEST PUSH1 0x0 PUSH2 0x9FF DUP3 PUSH2 0x9D2 JUMP JUMPDEST SWAP1 POP SWAP2 SWAP1 POP JUMP JUMPDEST PUSH1 0x0 PUSH2 0xA11 DUP3 PUSH2 0x9F4 JUMP JUMPDEST SWAP1 POP SWAP2 SWAP1 POP JUMP JUMPDEST PUSH2 0xA21 DUP2 PUSH2 0xA06 JUMP JUMPDEST DUP3 MSTORE POP POP JUMP JUMPDEST PUSH1 0x0 PUSH1 0x20 DUP3 ADD SWAP1 POP PUSH2 0xA3C PUSH1 0x0 DUP4 ADD DUP5 PUSH2 0xA18 JUMP JUMPDEST SWAP3 SWAP2 POP POP JUMP JUMPDEST PUSH1 0x0 PUSH2 0xA4D DUP3 PUSH2 0x9A8 JUMP JUMPDEST SWAP1 POP SWAP2 SWAP1 POP JUMP JUMPDEST PUSH2 0xA5D DUP2 PUSH2 0xA42 JUMP JUMPDEST DUP2 EQ PUSH2 0xA68 JUMPI PUSH1 0x0 DUP1 REVERT JUMPDEST POP JUMP JUMPDEST PUSH1 0x0 DUP2 CALLDATALOAD SWAP1 POP PUSH2 0xA7A DUP2 PUSH2 0xA54 JUMP JUMPDEST SWAP3 SWAP2 POP POP JUMP JUMPDEST PUSH1 0x0 DUP1 PUSH1 0x40 DUP4 DUP6 SUB SLT ISZERO PUSH2 0xA97 JUMPI PUSH2 0xA96 PUSH2 0x86C JUMP JUMPDEST JUMPDEST PUSH1 0x0 PUSH2 0xAA5 DUP6 DUP3 DUP7 ADD PUSH2 0xA6B JUMP JUMPDEST SWAP3 POP POP PUSH1 0x20 PUSH2 0xAB6 DUP6 DUP3 DUP7 ADD PUSH2 0x897 JUMP JUMPDEST SWAP2 POP POP SWAP3 POP SWAP3 SWAP1 POP JUMP JUMPDEST PUSH1 0x0 DUP2 ISZERO ISZERO SWAP1 POP SWAP2 SWAP1 POP JUMP JUMPDEST PUSH2 0xAD5 DUP2 PUSH2 0xAC0 JUMP JUMPDEST DUP3 MSTORE POP POP JUMP JUMPDEST PUSH1 0x0 PUSH1 0x20 DUP3 ADD SWAP1 POP PUSH2 0xAF0 PUSH1 0x0 DUP4 ADD DUP5 PUSH2 0xACC JUMP JUMPDEST SWAP3 SWAP2 POP POP JUMP JUMPDEST PUSH1 0x0 DUP1 REVERT JUMPDEST PUSH1 0x0 DUP1 REVERT JUMPDEST PUSH32 0x4E487B7100000000000000000000000000000000000000000000000000000000 PUSH1 0x0 MSTORE PUSH1 0x41 PUSH1 0x4 MSTORE PUSH1 0x24 PUSH1 0x0 REVERT JUMPDEST PUSH2 0xB38 DUP3 PUSH2 0x91F JUMP JUMPDEST DUP2 ADD DUP2 DUP2 LT PUSH8 0xFFFFFFFFFFFFFFFF DUP3 GT OR ISZERO PUSH2 0xB57 JUMPI PUSH2 0xB56 PUSH2 0xB00 JUMP JUMPDEST JUMPDEST DUP1 PUSH1 0x40 MSTORE POP POP POP JUMP JUMPDEST PUSH1 0x0 PUSH2 0xB6A PUSH2 0x862 JUMP JUMPDEST SWAP1 POP PUSH2 0xB76 DUP3 DUP3 PUSH2 0xB2F JUMP JUMPDEST SWAP2 SWAP1 POP JUMP JUMPDEST PUSH1 0x0 PUSH8 0xFFFFFFFFFFFFFFFF DUP3 GT ISZERO PUSH2 0xB96 JUMPI PUSH2 0xB95 PUSH2 0xB00 JUMP JUMPDEST JUMPDEST PUSH2 0xB9F DUP3 PUSH2 0x91F JUMP JUMPDEST SWAP1 POP PUSH1 0x20 DUP2 ADD SWAP1 POP SWAP2 SWAP1 POP JUMP JUMPDEST DUP3 DUP2 DUP4 CALLDATACOPY PUSH1 0x0 DUP4 DUP4 ADD MSTORE POP POP POP JUMP JUMPDEST PUSH1 0x0 PUSH2 0xBCE PUSH2 0xBC9 DUP5 PUSH2 0xB7B JUMP JUMPDEST PUSH2 0xB60 JUMP JUMPDEST SWAP1 POP DUP3 DUP2 MSTORE PUSH1 0x20 DUP2 ADD DUP5 DUP5 DUP5 ADD GT ISZERO PUSH2 0xBEA JUMPI PUSH2 0xBE9 PUSH2 0xAFB JUMP JUMPDEST JUMPDEST PUSH2 0xBF5 DUP5 DUP3 DUP6 PUSH2 0xBAC JUMP JUMPDEST POP SWAP4 SWAP3 POP POP POP JUMP JUMPDEST PUSH1 0x0 DUP3 PUSH1 0x1F DUP4 ADD SLT PUSH2 0xC12 JUMPI PUSH2 0xC11 PUSH2 0xAF6 JUMP JUMPDEST JUMPDEST DUP2 CALLDATALOAD PUSH2 0xC22 DUP5 DUP3 PUSH1 0x20 DUP7 ADD PUSH2 0xBBB JUMP JUMPDEST SWAP2 POP POP SWAP3 SWAP2 POP POP JUMP JUMPDEST PUSH1 0x0 PUSH1 0x20 DUP3 DUP5 SUB SLT ISZERO PUSH2 0xC41 JUMPI PUSH2 0xC40 PUSH2 0x86C JUMP JUMPDEST JUMPDEST PUSH1 0x0 DUP3 ADD CALLDATALOAD PUSH8 0xFFFFFFFFFFFFFFFF DUP2 GT ISZERO PUSH2 0xC5F JUMPI PUSH2 0xC5E PUSH2 0x871 JUMP JUMPDEST JUMPDEST PUSH2 0xC6B DUP5 DUP3 DUP6 ADD PUSH2 0xBFD JUMP JUMPDEST SWAP2 POP POP SWAP3 SWAP2 POP POP JUMP JUMPDEST PUSH1 0x0 DUP2 MLOAD SWAP1 POP SWAP2 SWAP1 POP JUMP JUMPDEST PUSH1 0x0 DUP3 DUP3 MSTORE PUSH1 0x20 DUP3 ADD SWAP1 POP SWAP3 SWAP2 POP POP JUMP JUMPDEST PUSH1 0x0 DUP2 SWAP1 POP PUSH1 0x20 DUP3 ADD SWAP1 POP SWAP2 SWAP1 POP JUMP JUMPDEST PUSH1 0x0 DUP3 DUP3 MSTORE PUSH1 0x20 DUP3 ADD SWAP1 POP SWAP3 SWAP2 POP POP JUMP JUMPDEST PUSH1 0x0 PUSH2 0xCBC DUP3 PUSH2 0x8D9 JUMP JUMPDEST PUSH2 0xCC6 DUP2 DUP6 PUSH2 0xCA0 JUMP JUMPDEST SWAP4 POP PUSH2 0xCD6 DUP2 DUP6 PUSH1 0x20 DUP7 ADD PUSH2 0x8F5 JUMP JUMPDEST PUSH2 0xCDF DUP2 PUSH2 0x91F JUMP JUMPDEST DUP5 ADD SWAP2 POP POP SWAP3 SWAP2 POP POP JUMP JUMPDEST PUSH2 0xCF3 DUP2 PUSH2 0x876 JUMP JUMPDEST DUP3 MSTORE POP POP JUMP JUMPDEST PUSH1 0x0 PUSH1 0x40 DUP4 ADD PUSH1 0x0 DUP4 ADD MLOAD DUP5 DUP3 SUB PUSH1 0x0 DUP7 ADD MSTORE PUSH2 0xD16 DUP3 DUP3 PUSH2 0xCB1 JUMP JUMPDEST SWAP2 POP POP PUSH1 0x20 DUP4 ADD MLOAD PUSH2 0xD2B PUSH1 0x20 DUP7 ADD DUP3 PUSH2 0xCEA JUMP JUMPDEST POP DUP1 SWAP2 POP POP SWAP3 SWAP2 POP POP JUMP JUMPDEST PUSH1 0x0 PUSH2 0xD42 DUP4 DUP4 PUSH2 0xCF9 JUMP JUMPDEST SWAP1 POP SWAP3 SWAP2 POP POP JUMP JUMPDEST PUSH1 0x0 PUSH1 0x20 DUP3 ADD SWAP1 POP SWAP2 SWAP1 POP JUMP JUMPDEST PUSH1 0x0 PUSH2 0xD62 DUP3 PUSH2 0xC74 JUMP JUMPDEST PUSH2 0xD6C DUP2 DUP6 PUSH2 0xC7F JUMP JUMPDEST SWAP4 POP DUP4 PUSH1 0x20 DUP3 MUL DUP6 ADD PUSH2 0xD7E DUP6 PUSH2 0xC90 JUMP JUMPDEST DUP1 PUSH1 0x0 JUMPDEST DUP6 DUP2 LT ISZERO PUSH2 0xDBA JUMPI DUP5 DUP5 SUB DUP10 MSTORE DUP2 MLOAD PUSH2 0xD9B DUP6 DUP3 PUSH2 0xD36 JUMP JUMPDEST SWAP5 POP PUSH2 0xDA6 DUP4 PUSH2 0xD4A JUMP JUMPDEST SWAP3 POP PUSH1 0x20 DUP11 ADD SWAP10 POP POP PUSH1 0x1 DUP2 ADD SWAP1 POP PUSH2 0xD82 JUMP JUMPDEST POP DUP3 SWAP8 POP DUP8 SWAP6 POP POP POP POP POP POP SWAP3 SWAP2 POP POP JUMP JUMPDEST PUSH1 0x0 PUSH1 0x20 DUP3 ADD SWAP1 POP DUP2 DUP2 SUB PUSH1 0x0 DUP4 ADD MSTORE PUSH2 0xDE6 DUP2 DUP5 PUSH2 0xD57 JUMP JUMPDEST SWAP1 POP SWAP3 SWAP2 POP POP JUMP JUMPDEST PUSH2 0xDF7 DUP2 PUSH2 0xA42 JUMP JUMPDEST DUP3 MSTORE POP POP JUMP JUMPDEST PUSH1 0x0 PUSH1 0x20 DUP3 ADD SWAP1 POP PUSH2 0xE12 PUSH1 0x0 DUP4 ADD DUP5 PUSH2 0xDEE JUMP JUMPDEST SWAP3 SWAP2 POP POP JUMP JUMPDEST PUSH1 0x0 DUP1 PUSH1 0x40 DUP4 DUP6 SUB SLT ISZERO PUSH2 0xE2F JUMPI PUSH2 0xE2E PUSH2 0x86C JUMP JUMPDEST JUMPDEST PUSH1 0x0 PUSH2 0xE3D DUP6 DUP3 DUP7 ADD PUSH2 0x897 JUMP JUMPDEST SWAP3 POP POP PUSH1 0x20 PUSH2 0xE4E DUP6 DUP3 DUP7 ADD PUSH2 0x897 JUMP JUMPDEST SWAP2 POP POP SWAP3 POP SWAP3 SWAP1 POP JUMP JUMPDEST PUSH32 0x4E487B7100000000000000000000000000000000000000000000000000000000 PUSH1 0x0 MSTORE PUSH1 0x22 PUSH1 0x4 MSTORE PUSH1 0x24 PUSH1 0x0 REVERT JUMPDEST PUSH1 0x0 PUSH1 0x2 DUP3 DIV SWAP1 POP PUSH1 0x1 DUP3 AND DUP1 PUSH2 0xE9F JUMPI PUSH1 0x7F DUP3 AND SWAP2 POP JUMPDEST PUSH1 0x20 DUP3 LT DUP2 SUB PUSH2 0xEB2 JUMPI PUSH2 0xEB1 PUSH2 0xE58 JUMP JUMPDEST JUMPDEST POP SWAP2 SWAP1 POP JUMP JUMPDEST PUSH32 0x4F6E6C79206F776E65722063616E206372656174652070726F706F73616C7300 PUSH1 0x0 DUP3 ADD MSTORE POP JUMP JUMPDEST PUSH1 0x0 PUSH2 0xEEE PUSH1 0x1F DUP4 PUSH2 0x8E4 JUMP JUMPDEST SWAP2 POP PUSH2 0xEF9 DUP3 PUSH2 0xEB8 JUMP JUMPDEST PUSH1 0x20 DUP3 ADD SWAP1 POP SWAP2 SWAP1 POP JUMP JUMPDEST PUSH1 0x0 PUSH1 0x20 DUP3 ADD SWAP1 POP DUP2 DUP2 SUB PUSH1 0x0 DUP4 ADD MSTORE PUSH2 0xF1D DUP2 PUSH2 0xEE1 JUMP JUMPDEST SWAP1 POP SWAP2 SWAP1 POP JUMP JUMPDEST PUSH1 0x0 DUP2 SWAP1 POP DUP2 PUSH1 0x0 MSTORE PUSH1 0x20 PUSH1 0x0 KECCAK256 SWAP1 POP SWAP2 SWAP1 POP JUMP JUMPDEST PUSH1 0x0 PUSH1 0x20 PUSH1 0x1F DUP4 ADD DIV SWAP1 POP SWAP2 SWAP1 POP JUMP JUMPDEST PUSH1 0x0 DUP3 DUP3 SHL SWAP1 POP SWAP3 SWAP2 POP POP JUMP JUMPDEST PUSH1 0x0 PUSH1 0x8 DUP4 MUL PUSH2 0xF86 PUSH32 0xFFFFFFFFFFFFFFFFFFFFFFFFFFFFFFFFFFFFFFFFFFFFFFFFFFFFFFFFFFFFFFFF DUP3 PUSH2 0xF49 JUMP JUMPDEST PUSH2 0xF90 DUP7 DUP4 PUSH2 0xF49 JUMP JUMPDEST SWAP6 POP DUP1 NOT DUP5 AND SWAP4 POP DUP1 DUP7 AND DUP5 OR SWAP3 POP POP POP SWAP4 SWAP3 POP POP POP JUMP JUMPDEST PUSH1 0x0 PUSH2 0xFC3 PUSH2 0xFBE PUSH2 0xFB9 DUP5 PUSH2 0x876 JUMP JUMPDEST PUSH2 0x9C8 JUMP JUMPDEST PUSH2 0x876 JUMP JUMPDEST SWAP1 POP SWAP2 SWAP1 POP JUMP JUMPDEST PUSH1 0x0 DUP2 SWAP1 POP SWAP2 SWAP1 POP JUMP JUMPDEST PUSH2 0xFDD DUP4 PUSH2 0xFA8 JUMP JUMPDEST PUSH2 0xFF1 PUSH2 0xFE9 DUP3 PUSH2 0xFCA JUMP JUMPDEST DUP5 DUP5 SLOAD PUSH2 0xF56 JUMP JUMPDEST DUP3 SSTORE POP POP POP POP JUMP JUMPDEST PUSH1 0x0 SWAP1 JUMP JUMPDEST PUSH2 0x1006 PUSH2 0xFF9 JUMP JUMPDEST PUSH2 0x1011 DUP2 DUP5 DUP5 PUSH2 0xFD4 JUMP JUMPDEST POP POP POP JUMP JUMPDEST JUMPDEST DUP2 DUP2 LT ISZERO PUSH2 0x1035 JUMPI PUSH2 0x102A PUSH1 0x0 DUP3 PUSH2 0xFFE JUMP JUMPDEST PUSH1 0x1 DUP2 ADD SWAP1 POP PUSH2 0x1017 JUMP JUMPDEST POP POP JUMP JUMPDEST PUSH1 0x1F DUP3 GT ISZERO PUSH2 0x107A JUMPI PUSH2 0x104B DUP2 PUSH2 0xF24 JUMP JUMPDEST PUSH2 0x1054 DUP5 PUSH2 0xF39 JUMP JUMPDEST DUP2 ADD PUSH1 0x20 DUP6 LT ISZERO PUSH2 0x1063 JUMPI DUP2 SWAP1 POP JUMPDEST PUSH2 0x1077 PUSH2 0x106F DUP6 PUSH2 0xF39 JUMP JUMPDEST DUP4 ADD DUP3 PUSH2 0x1016 JUMP JUMPDEST POP POP JUMPDEST POP POP POP JUMP JUMPDEST PUSH1 0x0 DUP3 DUP3 SHR SWAP1 POP SWAP3 SWAP2 POP POP JUMP JUMPDEST PUSH1 0x0 PUSH2 0x109D PUSH1 0x0 NOT DUP5 PUSH1 0x8 MUL PUSH2 0x107F JUMP JUMPDEST NOT DUP1 DUP4 AND SWAP2 POP POP SWAP3 SWAP2 POP POP JUMP JUMPDEST PUSH1 0x0 PUSH2 0x10B6 DUP4 DUP4 PUSH2 0x108C JUMP JUMPDEST SWAP2 POP DUP3 PUSH1 0x2 MUL DUP3 OR SWAP1 POP SWAP3 SWAP2 POP POP JUMP JUMPDEST PUSH2 0x10CF DUP3 PUSH2 0x8D9 JUMP JUMPDEST PUSH8 0xFFFFFFFFFFFFFFFF DUP2 GT ISZERO PUSH2 0x10E8 JUMPI PUSH2 0x10E7 PUSH2 0xB00 JUMP JUMPDEST JUMPDEST PUSH2 0x10F2 DUP3 SLOAD PUSH2 0xE87 JUMP JUMPDEST PUSH2 0x10FD DUP3 DUP3 DUP6 PUSH2 0x1039 JUMP JUMPDEST PUSH1 0x0 PUSH1 0x20 SWAP1 POP PUSH1 0x1F DUP4 GT PUSH1 0x1 DUP2 EQ PUSH2 0x1130 JUMPI PUSH1 0x0 DUP5 ISZERO PUSH2 0x111E JUMPI DUP3 DUP8 ADD MLOAD SWAP1 POP JUMPDEST PUSH2 0x1128 DUP6 DUP3 PUSH2 0x10AA JUMP JUMPDEST DUP7 SSTORE POP PUSH2 0x1190 JUMP JUMPDEST PUSH1 0x1F NOT DUP5 AND PUSH2 0x113E DUP7 PUSH2 0xF24 JUMP JUMPDEST PUSH1 0x0 JUMPDEST DUP3 DUP2 LT ISZERO PUSH2 0x1166 JUMPI DUP5 DUP10 ADD MLOAD DUP3 SSTORE PUSH1 0x1 DUP3 ADD SWAP2 POP PUSH1 0x20 DUP6 ADD SWAP5 POP PUSH1 0x20 DUP2 ADD SWAP1 POP PUSH2 0x1141 JUMP JUMPDEST DUP7 DUP4 LT ISZERO PUSH2 0x1183 JUMPI DUP5 DUP10 ADD MLOAD PUSH2 0x117F PUSH1 0x1F DUP10 AND DUP3 PUSH2 0x108C JUMP JUMPDEST DUP4 SSTORE POP JUMPDEST PUSH1 0x1 PUSH1 0x2 DUP9 MUL ADD DUP9 SSTORE POP POP POP JUMPDEST POP POP POP POP POP POP JUMP JUMPDEST PUSH32 0x4E487B7100000000000000000000000000000000000000000000000000000000 PUSH1 0x0 MSTORE PUSH1 0x11 PUSH1 0x4 MSTORE PUSH1 0x24 PUSH1 0x0 REVERT JUMPDEST PUSH1 0x0 PUSH2 0x11D2 DUP3 PUSH2 0x876 JUMP JUMPDEST SWAP2 POP PUSH2 0x11DD DUP4 PUSH2 0x876 JUMP JUMPDEST SWAP3 POP DUP3 DUP3 SUB SWAP1 POP DUP2 DUP2 GT ISZERO PUSH2 0x11F5 JUMPI PUSH2 0x11F4 PUSH2 0x1198 JUMP JUMPDEST JUMPDEST SWAP3 SWAP2 POP POP JUMP JUMPDEST PUSH1 0x0 PUSH1 0x40 DUP3 ADD SWAP1 POP PUSH2 0x1210 PUSH1 0x0 DUP4 ADD DUP6 PUSH2 0x969 JUMP JUMPDEST DUP2 DUP2 SUB PUSH1 0x20 DUP4 ADD MSTORE PUSH2 0x1222 DUP2 DUP5 PUSH2 0x930 JUMP JUMPDEST SWAP1 POP SWAP4 SWAP3 POP POP POP JUMP JUMPDEST PUSH32 0x50726F706F73616C20646F6573206E6F74206578697374000000000000000000 PUSH1 0x0 DUP3 ADD MSTORE POP JUMP JUMPDEST PUSH1 0x0 PUSH2 0x1261 PUSH1 0x17 DUP4 PUSH2 0x8E4 JUMP JUMPDEST SWAP2 POP PUSH2 0x126C DUP3 PUSH2 0x122B JUMP JUMPDEST PUSH1 0x20 DUP3 ADD SWAP1 POP SWAP2 SWAP1 POP JUMP JUMPDEST PUSH1 0x0 PUSH1 0x20 DUP3 ADD SWAP1 POP DUP2 DUP2 SUB PUSH1 0x0 DUP4 ADD MSTORE PUSH2 0x1290 DUP2 PUSH2 0x1254 JUMP JUMPDEST SWAP1 POP SWAP2 SWAP1 POP JUMP JUMPDEST PUSH32 0x416C726561647920766F74656400000000000000000000000000000000000000 PUSH1 0x0 DUP3 ADD MSTORE POP JUMP JUMPDEST PUSH1 0x0 PUSH2 0x12CD PUSH1 0xD DUP4 PUSH2 0x8E4 JUMP JUMPDEST SWAP2 POP PUSH2 0x12D8 DUP3 PUSH2 0x1297 JUMP JUMPDEST PUSH1 0x20 DUP3 ADD SWAP1 POP SWAP2 SWAP1 POP JUMP JUMPDEST PUSH1 0x0 PUSH1 0x20 DUP3 ADD SWAP1 POP DUP2 DUP2 SUB PUSH1 0x0 DUP4 ADD MSTORE PUSH2 0x12FC DUP2 PUSH2 0x12C0 JUMP JUMPDEST SWAP1 POP SWAP2 SWAP1 POP JUMP JUMPDEST PUSH1 0x0 DUP2 MLOAD SWAP1 POP PUSH2 0x1312 DUP2 PUSH2 0x880 JUMP JUMPDEST SWAP3 SWAP2 POP POP JUMP JUMPDEST PUSH1 0x0 PUSH1 0x20 DUP3 DUP5 SUB SLT ISZERO PUSH2 0x132E JUMPI PUSH2 0x132D PUSH2 0x86C JUMP JUMPDEST JUMPDEST PUSH1 0x0 PUSH2 0x133C DUP5 DUP3 DUP6 ADD PUSH2 0x1303 JUMP JUMPDEST SWAP2 POP POP SWAP3 SWAP2 POP POP JUMP JUMPDEST PUSH32 0x4E6F7420656E6F75676820746F6B656E73000000000000000000000000000000 PUSH1 0x0 DUP3 ADD MSTORE POP JUMP JUMPDEST PUSH1 0x0 PUSH2 0x137B PUSH1 0x11 DUP4 PUSH2 0x8E4 JUMP JUMPDEST SWAP2 POP PUSH2 0x1386 DUP3 PUSH2 0x1345 JUMP JUMPDEST PUSH1 0x20 DUP3 ADD SWAP1 POP SWAP2 SWAP1 POP JUMP JUMPDEST PUSH1 0x0 PUSH1 0x20 DUP3 ADD SWAP1 POP DUP2 DUP2 SUB PUSH1 0x0 DUP4 ADD MSTORE PUSH2 0x13AA DUP2 PUSH2 0x136E JUMP JUMPDEST SWAP1 POP SWAP2 SWAP1 POP JUMP JUMPDEST PUSH1 0x0 PUSH1 0x60 DUP3 ADD SWAP1 POP PUSH2 0x13C6 PUSH1 0x0 DUP4 ADD DUP7 PUSH2 0xDEE JUMP JUMPDEST PUSH2 0x13D3 PUSH1 0x20 DUP4 ADD DUP6 PUSH2 0xDEE JUMP JUMPDEST PUSH2 0x13E0 PUSH1 0x40 DUP4 ADD DUP5 PUSH2 0x969 JUMP JUMPDEST SWAP5 SWAP4 POP POP POP POP JUMP JUMPDEST PUSH2 0x13F1 DUP2 PUSH2 0xAC0 JUMP JUMPDEST DUP2 EQ PUSH2 0x13FC JUMPI PUSH1 0x0 DUP1 REVERT JUMPDEST POP JUMP JUMPDEST PUSH1 0x0 DUP2 MLOAD SWAP1 POP PUSH2 0x140E DUP2 PUSH2 0x13E8 JUMP JUMPDEST SWAP3 SWAP2 POP POP JUMP JUMPDEST PUSH1 0x0 PUSH1 0x20 DUP3 DUP5 SUB SLT ISZERO PUSH2 0x142A JUMPI PUSH2 0x1429 PUSH2 0x86C JUMP JUMPDEST JUMPDEST PUSH1 0x0 PUSH2 0x1438 DUP5 DUP3 DUP6 ADD PUSH2 0x13FF JUMP JUMPDEST SWAP2 POP POP SWAP3 SWAP2 POP POP JUMP JUMPDEST PUSH32 0x4E487B7100000000000000000000000000000000000000000000000000000000 PUSH1 0x0 MSTORE PUSH1 0x32 PUSH1 0x4 MSTORE PUSH1 0x24 PUSH1 0x0 REVERT JUMPDEST PUSH1 0x0 PUSH2 0x147B DUP3 PUSH2 0x876 JUMP JUMPDEST SWAP2 POP PUSH2 0x1486 DUP4 PUSH2 0x876 JUMP JUMPDEST SWAP3 POP DUP3 DUP3 ADD SWAP1 POP DUP1 DUP3 GT ISZERO PUSH2 0x149E JUMPI PUSH2 0x149D PUSH2 0x1198 JUMP JUMPDEST JUMPDEST SWAP3 SWAP2 POP POP JUMP JUMPDEST PUSH1 0x0 PUSH1 0x40 DUP3 ADD SWAP1 POP PUSH2 0x14B9 PUSH1 0x0 DUP4 ADD DUP6 PUSH2 0x969 JUMP JUMPDEST PUSH2 0x14C6 PUSH1 0x20 DUP4 ADD DUP5 PUSH2 0x969 JUMP JUMPDEST SWAP4 SWAP3 POP POP POP JUMP INVALID LOG2 PUSH5 0x6970667358 0x22 SLT KECCAK256 0xA5 DUP2 SWAP3 DUP15 PUSH7 0x3361164DAD884B 0xD0 0xE5 0xC3 SWAP9 0xCD 0xB5 PUSH3 0xFC56AD 0xAA CREATE 0xCD PUSH27 0xD6DC4063281864736F6C634300081C003300000000000000000000 "},"methodIdentifiers":{"createProposal(string)":"49c2a1a6","getProposals()":"62564c48","hasVoted(address,uint256)":"42545825","owner()":"8da5cb5b","proposals(uint256)":"013cf08b","vote(uint256,uint256)":"b384abef","voteToken()":"160d66ae"}}}}}